{
  "_format": "hh-sol-artifact-1",
  "contractName": "CrowdFunding",
  "sourceName": "contracts/CrowdFunding.sol",
  "abi": [
    {
      "inputs": [
        {
          "internalType": "uint256",
          "name": "",
          "type": "uint256"
        }
      ],
      "name": "campaigns",
      "outputs": [
        {
          "internalType": "address",
          "name": "owner",
          "type": "address"
        },
        {
          "internalType": "string",
          "name": "title",
          "type": "string"
        },
        {
          "internalType": "string",
          "name": "description",
          "type": "string"
        },
        {
          "internalType": "uint256",
          "name": "target",
          "type": "uint256"
        },
        {
          "internalType": "uint256",
          "name": "deadline",
          "type": "uint256"
        },
        {
          "internalType": "uint256",
          "name": "amountCollected",
          "type": "uint256"
        }
      ],
      "stateMutability": "view",
      "type": "function"
    },
    {
      "inputs": [
        {
          "internalType": "address",
          "name": "_owner",
          "type": "address"
        },
        {
          "internalType": "string",
          "name": "_title",
          "type": "string"
        },
        {
          "internalType": "string",
          "name": "_description",
          "type": "string"
        },
        {
          "internalType": "uint256",
          "name": "_target",
          "type": "uint256"
        },
        {
          "internalType": "uint256",
          "name": "_deadline",
          "type": "uint256"
        }
      ],
      "name": "createCampaign",
      "outputs": [
        {
          "internalType": "uint256",
          "name": "",
          "type": "uint256"
        }
      ],
      "stateMutability": "nonpayable",
      "type": "function"
    },
    {
      "inputs": [
        {
          "internalType": "uint256",
          "name": "_id",
          "type": "uint256"
        }
      ],
      "name": "donateToCampaign",
      "outputs": [],
      "stateMutability": "payable",
      "type": "function"
    },
    {
      "inputs": [],
      "name": "getCampaigns",
      "outputs": [
        {
          "components": [
            {
              "internalType": "address",
              "name": "owner",
              "type": "address"
            },
            {
              "internalType": "string",
              "name": "title",
              "type": "string"
            },
            {
              "internalType": "string",
              "name": "description",
              "type": "string"
            },
            {
              "internalType": "uint256",
              "name": "target",
              "type": "uint256"
            },
            {
              "internalType": "uint256",
              "name": "deadline",
              "type": "uint256"
            },
            {
              "internalType": "uint256",
              "name": "amountCollected",
              "type": "uint256"
            },
            {
              "internalType": "address[]",
              "name": "donators",
              "type": "address[]"
            },
            {
              "internalType": "uint256[]",
              "name": "donations",
              "type": "uint256[]"
            }
          ],
          "internalType": "struct CrowdFunding.Campaign[]",
          "name": "",
          "type": "tuple[]"
        }
      ],
      "stateMutability": "view",
      "type": "function"
    },
    {
      "inputs": [
        {
          "internalType": "uint256",
          "name": "_id",
          "type": "uint256"
        }
      ],
      "name": "getDonators",
      "outputs": [
        {
          "internalType": "address[]",
          "name": "",
          "type": "address[]"
        },
        {
          "internalType": "uint256[]",
          "name": "",
          "type": "uint256[]"
        }
      ],
      "stateMutability": "view",
      "type": "function"
    },
    {
      "inputs": [],
      "name": "numberOfCampaigns",
      "outputs": [
        {
          "internalType": "uint256",
          "name": "",
          "type": "uint256"
        }
      ],
      "stateMutability": "view",
      "type": "function"
    },
    {
      "inputs": [
        {
          "internalType": "address",
          "name": "to",
          "type": "address"
        }
      ],
      "name": "send",
      "outputs": [],
      "stateMutability": "payable",
      "type": "function"
    }
  ],
  "bytecode": "0x6080604052600060015534801561001557600080fd5b506119bf806100256000396000f3fe6080604052600436106100705760003560e01c8063141961bc1161004e578063141961bc1461011b5780633e58c58c1461015d57806342a4fda814610179578063a6b036331461019557610070565b8063075843c31461007557806307ca140d146100b25780630fa91fa9146100dd575b600080fd5b34801561008157600080fd5b5061009c60048036038101906100979190610d35565b6101c0565b6040516100a99190610df7565b60405180910390f35b3480156100be57600080fd5b506100c76102d0565b6040516100d49190610df7565b60405180910390f35b3480156100e957600080fd5b5061010460048036038101906100ff9190610e12565b6102d6565b604051610112929190610fbb565b60405180910390f35b34801561012757600080fd5b50610142600480360381019061013d9190610e12565b6103e6565b60405161015496959493929190611080565b60405180910390f35b610177600480360381019061017291906110ef565b610552565b005b610193600480360381019061018e9190610e12565b610602565b005b3480156101a157600080fd5b506101aa6107a8565b6040516101b791906113cb565b60405180910390f35b6000806000806001548152602001908152602001600020905042831161021b576040517f08c379a00000000000000000000000000000000000000000000000000000000081526004016102129061145f565b60405180910390fd5b868160000160006101000a81548173ffffffffffffffffffffffffffffffffffffffff021916908373ffffffffffffffffffffffffffffffffffffffff1602179055508581600101908161026f919061168b565b5084816002019081610281919061168b565b5083816003018190555082816004018190555060008160050181905550600160008154809291906102b19061178c565b9190505550600180546102c491906117d4565b91505095945050505050565b60015481565b6060806000808481526020019081526020016000206006016000808581526020019081526020016000206007018180548060200260200160405190810160405280929190818152602001828054801561038457602002820191906000526020600020905b8160009054906101000a900473ffffffffffffffffffffffffffffffffffffffff1673ffffffffffffffffffffffffffffffffffffffff168152602001906001019080831161033a575b50505050509150808054806020026020016040519081016040528092919081815260200182805480156103d657602002820191906000526020600020905b8154815260200190600101908083116103c2575b5050505050905091509150915091565b60006020528060005260406000206000915090508060000160009054906101000a900473ffffffffffffffffffffffffffffffffffffffff169080600101805461042f906114ae565b80601f016020809104026020016040519081016040528092919081815260200182805461045b906114ae565b80156104a85780601f1061047d576101008083540402835291602001916104a8565b820191906000526020600020905b81548152906001019060200180831161048b57829003601f168201915b5050505050908060020180546104bd906114ae565b80601f01602080910402602001604051908101604052809291908181526020018280546104e9906114ae565b80156105365780601f1061050b57610100808354040283529160200191610536565b820191906000526020600020905b81548152906001019060200180831161051957829003601f168201915b5050505050908060030154908060040154908060050154905086565b60008173ffffffffffffffffffffffffffffffffffffffff163460405161057890611839565b60006040518083038185875af1925050503d80600081146105b5576040519150601f19603f3d011682016040523d82523d6000602084013e6105ba565b606091505b50509050806105fe576040517f08c379a00000000000000000000000000000000000000000000000000000000081526004016105f59061189a565b60405180910390fd5b5050565b60003490506000806000848152602001908152602001600020905080600401544210610663576040517f08c379a000000000000000000000000000000000000000000000000000000000815260040161065a90611906565b60405180910390fd5b80600601339080600181540180825580915050600190039060005260206000200160009091909190916101000a81548173ffffffffffffffffffffffffffffffffffffffff021916908373ffffffffffffffffffffffffffffffffffffffff1602179055508060070182908060018154018082558091505060019003906000526020600020016000909190919091505560008160000160009054906101000a900473ffffffffffffffffffffffffffffffffffffffff1673ffffffffffffffffffffffffffffffffffffffff168360405161073d90611839565b60006040518083038185875af1925050503d806000811461077a576040519150601f19603f3d011682016040523d82523d6000602084013e61077f565b606091505b5050905080156107a2578282600501546107999190611926565b82600501819055505b50505050565b6060600060015467ffffffffffffffff8111156107c8576107c7610bd4565b5b60405190808252806020026020018201604052801561080157816020015b6107ee610aec565b8152602001906001900390816107e65790505b50905060005b600154811015610ae4576000806000838152602001908152602001600020905080604051806101000160405290816000820160009054906101000a900473ffffffffffffffffffffffffffffffffffffffff1673ffffffffffffffffffffffffffffffffffffffff1673ffffffffffffffffffffffffffffffffffffffff16815260200160018201805461089a906114ae565b80601f01602080910402602001604051908101604052809291908181526020018280546108c6906114ae565b80156109135780601f106108e857610100808354040283529160200191610913565b820191906000526020600020905b8154815290600101906020018083116108f657829003601f168201915b5050505050815260200160028201805461092c906114ae565b80601f0160208091040260200160405190810160405280929190818152602001828054610958906114ae565b80156109a55780601f1061097a576101008083540402835291602001916109a5565b820191906000526020600020905b81548152906001019060200180831161098857829003601f168201915b5050505050815260200160038201548152602001600482015481526020016005820154815260200160068201805480602002602001604051908101604052809291908181526020018280548015610a5157602002820191906000526020600020905b8160009054906101000a900473ffffffffffffffffffffffffffffffffffffffff1673ffffffffffffffffffffffffffffffffffffffff1681526020019060010190808311610a07575b5050505050815260200160078201805480602002602001604051908101604052809291908181526020018280548015610aa957602002820191906000526020600020905b815481526020019060010190808311610a95575b505050505081525050838381518110610ac557610ac461195a565b5b6020026020010181905250508080610adc9061178c565b915050610807565b508091505090565b604051806101000160405280600073ffffffffffffffffffffffffffffffffffffffff168152602001606081526020016060815260200160008152602001600081526020016000815260200160608152602001606081525090565b6000604051905090565b600080fd5b600080fd5b600073ffffffffffffffffffffffffffffffffffffffff82169050919050565b6000610b8682610b5b565b9050919050565b610b9681610b7b565b8114610ba157600080fd5b50565b600081359050610bb381610b8d565b92915050565b600080fd5b600080fd5b6000601f19601f8301169050919050565b7f4e487b7100000000000000000000000000000000000000000000000000000000600052604160045260246000fd5b610c0c82610bc3565b810181811067ffffffffffffffff82111715610c2b57610c2a610bd4565b5b80604052505050565b6000610c3e610b47565b9050610c4a8282610c03565b919050565b600067ffffffffffffffff821115610c6a57610c69610bd4565b5b610c7382610bc3565b9050602081019050919050565b82818337600083830152505050565b6000610ca2610c9d84610c4f565b610c34565b905082815260208101848484011115610cbe57610cbd610bbe565b5b610cc9848285610c80565b509392505050565b600082601f830112610ce657610ce5610bb9565b5b8135610cf6848260208601610c8f565b91505092915050565b6000819050919050565b610d1281610cff565b8114610d1d57600080fd5b50565b600081359050610d2f81610d09565b92915050565b600080600080600060a08688031215610d5157610d50610b51565b5b6000610d5f88828901610ba4565b955050602086013567ffffffffffffffff811115610d8057610d7f610b56565b5b610d8c88828901610cd1565b945050604086013567ffffffffffffffff811115610dad57610dac610b56565b5b610db988828901610cd1565b9350506060610dca88828901610d20565b9250506080610ddb88828901610d20565b9150509295509295909350565b610df181610cff565b82525050565b6000602082019050610e0c6000830184610de8565b92915050565b600060208284031215610e2857610e27610b51565b5b6000610e3684828501610d20565b91505092915050565b600081519050919050565b600082825260208201905092915050565b6000819050602082019050919050565b610e7481610b7b565b82525050565b6000610e868383610e6b565b60208301905092915050565b6000602082019050919050565b6000610eaa82610e3f565b610eb48185610e4a565b9350610ebf83610e5b565b8060005b83811015610ef0578151610ed78882610e7a565b9750610ee283610e92565b925050600181019050610ec3565b5085935050505092915050565b600081519050919050565b600082825260208201905092915050565b6000819050602082019050919050565b610f3281610cff565b82525050565b6000610f448383610f29565b60208301905092915050565b6000602082019050919050565b6000610f6882610efd565b610f728185610f08565b9350610f7d83610f19565b8060005b83811015610fae578151610f958882610f38565b9750610fa083610f50565b925050600181019050610f81565b5085935050505092915050565b60006040820190508181036000830152610fd58185610e9f565b90508181036020830152610fe98184610f5d565b90509392505050565b610ffb81610b7b565b82525050565b600081519050919050565b600082825260208201905092915050565b60005b8381101561103b578082015181840152602081019050611020565b60008484015250505050565b600061105282611001565b61105c818561100c565b935061106c81856020860161101d565b61107581610bc3565b840191505092915050565b600060c0820190506110956000830189610ff2565b81810360208301526110a78188611047565b905081810360408301526110bb8187611047565b90506110ca6060830186610de8565b6110d76080830185610de8565b6110e460a0830184610de8565b979650505050505050565b60006020828403121561110557611104610b51565b5b600061111384828501610ba4565b91505092915050565b600081519050919050565b600082825260208201905092915050565b6000819050602082019050919050565b600082825260208201905092915050565b600061116482611001565b61116e8185611148565b935061117e81856020860161101d565b61118781610bc3565b840191505092915050565b600082825260208201905092915050565b60006111ae82610e3f565b6111b88185611192565b93506111c383610e5b565b8060005b838110156111f45781516111db8882610e7a565b97506111e683610e92565b9250506001810190506111c7565b5085935050505092915050565b600082825260208201905092915050565b600061121d82610efd565b6112278185611201565b935061123283610f19565b8060005b8381101561126357815161124a8882610f38565b975061125583610f50565b925050600181019050611236565b5085935050505092915050565b6000610100830160008301516112896000860182610e6b565b50602083015184820360208601526112a18282611159565b915050604083015184820360408601526112bb8282611159565b91505060608301516112d06060860182610f29565b5060808301516112e36080860182610f29565b5060a08301516112f660a0860182610f29565b5060c083015184820360c086015261130e82826111a3565b91505060e083015184820360e08601526113288282611212565b9150508091505092915050565b60006113418383611270565b905092915050565b6000602082019050919050565b60006113618261111c565b61136b8185611127565b93508360208202850161137d85611138565b8060005b858110156113b9578484038952815161139a8582611335565b94506113a583611349565b925060208a01995050600181019050611381565b50829750879550505050505092915050565b600060208201905081810360008301526113e58184611356565b905092915050565b7f54686520646561646c696e652073686f756c642062652061206461746520696e60008201527f20746865206675747572652e0000000000000000000000000000000000000000602082015250565b6000611449602c8361100c565b9150611454826113ed565b604082019050919050565b600060208201905081810360008301526114788161143c565b9050919050565b7f4e487b7100000000000000000000000000000000000000000000000000000000600052602260045260246000fd5b600060028204905060018216806114c657607f821691505b6020821081036114d9576114d861147f565b5b50919050565b60008190508160005260206000209050919050565b60006020601f8301049050919050565b600082821b905092915050565b6000600883026115417fffffffffffffffffffffffffffffffffffffffffffffffffffffffffffffffff82611504565b61154b8683611504565b95508019841693508086168417925050509392505050565b6000819050919050565b600061158861158361157e84610cff565b611563565b610cff565b9050919050565b6000819050919050565b6115a28361156d565b6115b66115ae8261158f565b848454611511565b825550505050565b600090565b6115cb6115be565b6115d6818484611599565b505050565b5b818110156115fa576115ef6000826115c3565b6001810190506115dc565b5050565b601f82111561163f57611610816114df565b611619846114f4565b81016020851015611628578190505b61163c611634856114f4565b8301826115db565b50505b505050565b600082821c905092915050565b600061166260001984600802611644565b1980831691505092915050565b600061167b8383611651565b9150826002028217905092915050565b61169482611001565b67ffffffffffffffff8111156116ad576116ac610bd4565b5b6116b782546114ae565b6116c28282856115fe565b600060209050601f8311600181146116f557600084156116e3578287015190505b6116ed858261166f565b865550611755565b601f198416611703866114df565b60005b8281101561172b57848901518255600182019150602085019450602081019050611706565b868310156117485784890151611744601f891682611651565b8355505b6001600288020188555050505b505050505050565b7f4e487b7100000000000000000000000000000000000000000000000000000000600052601160045260246000fd5b600061179782610cff565b91507fffffffffffffffffffffffffffffffffffffffffffffffffffffffffffffffff82036117c9576117c861175d565b5b600182019050919050565b60006117df82610cff565b91506117ea83610cff565b92508282039050818111156118025761180161175d565b5b92915050565b600081905092915050565b50565b6000611823600083611808565b915061182e82611813565b600082019050919050565b600061184482611816565b9150819050919050565b7f4661696c656420746f2073656e64204554480000000000000000000000000000600082015250565b600061188460128361100c565b915061188f8261184e565b602082019050919050565b600060208201905081810360008301526118b381611877565b9050919050565b7f43616d706169676e2068617320656e6465640000000000000000000000000000600082015250565b60006118f060128361100c565b91506118fb826118ba565b602082019050919050565b6000602082019050818103600083015261191f816118e3565b9050919050565b600061193182610cff565b915061193c83610cff565b92508282019050808211156119545761195361175d565b5b92915050565b7f4e487b7100000000000000000000000000000000000000000000000000000000600052603260045260246000fdfea2646970667358221220af237b592e752ddb8d126db11efe3125aa0d3105fa8729317e835eb7d42bff9864736f6c63430008130033",
  "linkReferences": {},
  "deployedLinkReferences": {}
}